:100000000C94EA000C9412010C9412010C9412014D
:100010000C9412010C9412010C9412010C94120114
:100020000C9412010C9412010C9416010C9488018A
:100030000C9412010C9412010C9412010C941201F4
:100040000C9412010C9412010C9412010C941201E4
:100050000C9412010C9412010C9412010C94F007F0
:100060000C9412010C9412010C9412010C941201C4
:100070000C9412010C9412010C9412010C941201B4
:100080000C9412010C9412010C9412010C941201A4
:100090000C94AC080C9412010C9412010C941201F3
:1000A0000C9412010C9412010C9412015406570680
:1000B00046064A0650067806780678065B065F060E
:1000C000630669066D0678067306040309041201C7
:1000D0000002EF02014041233680000101020301CA
:1000E00041726475696E6F204C4C430041726475B7
:1000F000696E6F204C656F6E6172646F0000000066
:10010000002300260029002C002F0004040404040E
:1001100003040502020202040302020202060606AA
:100120000606060404020202040404080201104048
:100130008040102040804080080204018040201050
:100140000201108010204040200000000200090F32
:100150000000030401000C0000000000000000008B
:100160000000000000000000070605040100080A66
:100170000B0C0D0900000000240027002A002D00B0
:10018000300000000000250028002B002E00310068
:10019000080B000202020100090400000102020033
:1001A00000052400100105240101010424020605B4
:1001B0002406000107058103100040090401000224
:1001C0000A00000007050202400000070583024004
:1001D00000005B1211241FBECFEFDAE0DEBFCDBFFF
:1001E00011E0A0E0B1E0E8E7FDE202C005900D9269
:1001F000A03FB107D9F723E0A0EFB1E001C01D9205
:10020000A73BB207E1F710E0CAEED0E004C02197A7
:10021000FE010E946515C93ED107C9F70E94550D20
:100220000C94BA160C9400000E94AC161F920F9208
:100230000FB60F9211248F939F938091E1009091BC
:10024000E100937F9093E10083FF0FC01092E900DB
:1002500091E09093EB001092EC0092E39093ED000C
:100260001092B20398E09093F00082FF20C093E0D8
:100270009093E9009091F200992319F09AE39093FA
:10028000E8009091F401992339F09091F401915094
:100290009093F401992389F19091B103992339F056
:1002A0009091B10391509093B103992341F184FF50
:1002B00010C08091E2008E7E81608093E200809188
:1002C000E1008F7E8093E1008091F5018E7E806158
:1002D00011C080FF16C08091E2008E7E8061809305
:1002E000E2008091E1008E7E8093E1008091F50133
:1002F0008E7E81608093F50104C05D9ACDCF289AEF
:10030000D6CF9F918F910F900FBE0F901F90189591
:100310001F920F920FB60F921124CF92DF92EF929D
:10032000FF920F931F932F933F934F935F936F937E
:100330007F938F939F93AF93BF93EF93FF93CF934D
:10034000DF93CDB7DEB76C97DEBFCDBF1092E9006B
:100350008091E80083FFEDC168E0CE0145960E94E0
:10036000E90582EF8093E8008D8987FF05C09091B1
:10037000E80090FFFCCF03C09EEF9093E800982F19
:10038000907609F0C6C09E892F89188D91110CC0F6
:10039000803829F48091F7018093F10002C0109217
:1003A000F1001092F10048C1422F50E0512B9130E2
:1003B00051F4811141C14130510509F03DC1809195
:1003C000F7018D7F0BC0933061F4811135C141304D
:1003D000510509F031C18091F70182608093F701E6
:1003E0002BC1953041F48091E80080FFFCCF20685C
:1003F0002093E30021C1963009F05FC0EB8CFC8CA8
:100400001092E9001092F3011092F201123091F56E
:100410001092F1011092F0010E940A0699E0BE01CB
:100420006F5F7F4FDB01E92F1D92EA95E9F7998312
:100430001A8391E09E8390EA98879AEF998720919A
:10044000F2013091F301275F3F4F3C832B838D8373
:100450001092E9001092F3011092F201F092F10172
:10046000E092F00149E050E080E00E9426050E9401
:100470000A06E2C0F092F101E092F0010E94F60556
:10048000DC011296ED90FC901397E114F10409F44D
:10049000C0C0D701ED91FC910480F581E02DBE0133
:1004A0006B5E7F4FC7010995009719F00CF0C4C02F
:1004B000C7C0F701E084F184E8CF973009F4C0C0E9
:1004C000983021F481E08093F100B6C0993009F0B2
:1004D000B3C0837009F0B4C0E1E0F1E081E021E055
:1004E00036E39081992361F08093E9002093EB003B
:1004F00091919093EC003093ED008F5F873089F7F6
:100500008EE78093EA001092EA008F898093B2030D
:1005100093C08B8D9C8D1092E9001092F301109284
:10052000F2019093F1018093F001898D811156C001
:100530008E899D89913A59F4813209F081C047E052
:1005400050E062E271E080E00E94260575C09132C1
:1005500009F076C0833289F4888D90E0982F88273F
:100560002F89822BA0E0B0E08093070190930801CF
:10057000A0930901B0930A015FC0803269F48091B1
:10058000E80082FFFCCF67E082E291E00E94E9058B
:100590008BEF8093E80006C0823209F04DC08F894E
:1005A000809329018091F601882319F0EEEFFAE09B
:1005B00002C0E0E0F8E08091220190912301A09137
:1005C0002401B0912501803B9440A105B10509F0BB
:1005D0007BC08091290180FF93C076C00E94F60500
:1005E000DC0112960D911C9113970115110541F133
:1005F000D801ED91FC910190F081E02DBE016B5E80
:100600007F4FC8010995811117C0F8010085118538
:10061000ECCF113009F44EC0133091F48F89882348
:1006200009F445C0823081F440E860E18CEE90E04E
:100630000E94E904882321F08EEF8093E80079C0BE
:1006400081E28093EB0075C0813029F440E86BE0D3
:1006500080EE90E0EDCF833099F70E94F605DC0143
:100660001296ED90FC9013978E010F5F1F4F68015B
:10067000E114F10479F0D701ED91FC910680F78146
:10068000E02DB801C7010995080F111DF701E0849D
:10069000F184EECFD8011C92F60101900020E9F719
:1006A0003197BF016C197D0940E0C601C1CF6AECEA
:1006B00070E002C06EEC70E06115710509F2FB019B
:1006C000449150E080E840CF0FB6F894A89580910F
:1006D0006000886180936000109260000FBEA89552
:1006E000EE3F2AE0F20739F08091FE0A9091FF0A6E
:1006F00091838083A1CF1092FF0A1092FE0A9CCFB3
:10070000EE3F8AE0F80731F0808191819093FF0AF3
:100710008093FE0A87E797E7918380839BE088E1D7
:100720000FB6F894A895809360000FBE9093600078
:1007300083CF6C960FB6F894DEBF0FBECDBFDF91AE
:10074000CF91FF91EF91BF91AF919F918F917F9149
:100750006F915F914F913F912F911F910F91FF905A
:10076000EF90DF90CF900F900FBE0F901F901895D5
:100770004091F2015091F3012091F0013091F1018B
:1007800042175307B4F49091E8009570E1F390910B
:10079000E80092FD19C08093F1008091F2019091E0
:1007A000F30101968F739927892B19F48EEF8093AB
:1007B000E8008091F2019091F30101969093F3018A
:1007C0008093F20181E0089580E00895CF92DF9256
:1007D000EF92FF920F931F93CF93DF936C017A01F7
:1007E0008B01C0E0D0E0CE15DF0589F0D8016D9116
:1007F0008D01D601ED91FC910190F081E02DC601B3
:100800000995892B11F47E0102C02196ECCFC70116
:10081000DF91CF911F910F91FF90EF90DF90CF90DC
:1008200008953FB7F8948091F5029091F602A09157
:10083000F702B091F80226B5A89B05C02F3F19F02A
:100840000196A11DB11D3FBFBA2FA92F982F882750
:10085000820F911DA11DB11DBC01CD0142E0660FAB
:10086000771F881F991F4A95D1F70895DC01FB0176
:1008700012968C91129790E024813581821793070C
:10088000D1F491818081813A31F481E0913091F00D
:10089000933089F411C0813271F49B3021F482814C
:1008A0001F968C9305C09A3031F4828150968C93B8
:1008B00081E00895089580E00895DC01FB0188E45B
:1008C000808389E4818384E482831D969C911D97B3
:1008D0009F709F5B93831D968D919C911E9724E042
:1008E000969587952A95E1F78F708F5B848385E0D5
:1008F0000895FC0182818F5BFB01808381E0089574
:1009000085ED8093BC008091BC0084FDFCCF1092EB
:10091000B102089540918B02262F30E0240F311D43
:1009200021323105DCF42091B1022430C9F4FC01FC
:1009300080E090E0861758F430918B022191DC0121
:10094000A759BD4FA30FB11D2C930196F3CF8091F2
:100950008B02680F60938B0280E0089581E0089518
:1009600082E0089508958FEF9FEF08958FEF9FEF36
:1009700008958091680290E091958195910908957C
:10098000CF93DF9300D0CDB7DEB7CB01642F49837F
:100990005A830E948A044981842F5A81952F0F908F
:1009A0000F90DF91CF910895CF93DF931F92CDB732
:1009B000DEB7698361E0CE0101960E948A0481E07E
:1009C00090E00F90DF91CF910895089580E090E03E
:1009D0000895CF92DF92EF92FF920F931F93CF93E0
:1009E000DF931F92CDB7DEB7182F062FE42E862F88
:1009F000880F8E5F99830E94B80383E00E94B8033A
:100A0000F12EC12E9981D92E8C2D8F19801798F433
:100A1000F601E7FE02C0849101C080810E94B80304
:100A2000182F80E00E94B8038123FFEFCF1ADF0A5E
:100A30008111EACF01C081E00F90DF91CF911F912A
:100A40000F91FF90EF90DF90CF900895DF92EF929B
:100A5000FF920F931F93CF93DF93D82E8A017B01D0
:100A6000E40EF51EEB01CE15DF0571F0D7FE03C0D5
:100A7000FE01849101C088810E94B80321968111F2
:100A8000F2CF8FEF9FEF01C0C801DF91CF911F918F
:100A90000F91FF90EF90DF900895EF92FF920F93E8
:100AA0001F93CF93DF93FB012081213869F52381C8
:100AB000223251F5DC0112962C9130E044815581AF
:100AC0004217530709F58C01FC01C385D485E12C3D
:100AD000F12C209799F04C815D816A817B818E8118
:100AE000811180E80E9426058F3FFFEF9F0779F074
:100AF000E80EF91E0990D881C02DEBCF81E0D80116
:100B00001F968C93C70105C080E090E002C08FEF74
:100B10009FEFDF91CF911F910F91FF90EF9008957C
:100B2000CF93DF93CDB7DEB769970FB6F894DEBFEA
:100B30000FBECDBFFC01DB018C918F5F8C93BE019A
:100B40006F5F7F4F89E1DB011D928A95E9F729E00C
:100B5000298384E08A8391E09D8383E08E832A87C2
:100B600021E22B879C879D879F8722E2288B27E0A5
:100B70002B8B25E02C8B8E8B20E430E0388F2F8B55
:100B8000998F82818B8395858685998B8A8B8381CA
:100B900080688D8B49E150E080E00E9426056996CF
:100BA0000FB6F894DEBF0FBECDBFDF91CF91089591
:100BB0002FB7F89487708093E9009091E800892F0F
:100BC000807295FF04C09091F20080E4891B2FBFD2
:100BD0000895615030F02091F100FC0120830196CE
:100BE000F8CF289884E68093B10308958091FD02A0
:100BF00081110DC082E08093F90284E08093FA02B3
:100C00001092FC021092FB0281E08093FD0289EFBA
:100C100092E008950F931F93CF93DF931F92CDB768
:100C2000DEB782E0898342E450E060E971E080E869
:100C30000E9426050E94F605DC0112960D911C917A
:100C400013970115110569F0D801ED91FC9102800F
:100C5000F381E02DBE016F5F7F4FC801099597FFBB
:100C600007C089810F90DF91CF911F910F91089557
:100C7000F80100851185E5CF90E0FC013197EF3058
:100C8000F105B0F5EA5AFF4F0C946515809180008C
:100C90008F7703C0809180008F7D809380000895BE
:100CA00080918000877FF9CF84B58F7702C084B5AB
:100CB0008F7D84BD0895809190008F7707C08091CB
:100CC00090008F7D03C080919000877F809390007B
:100CD00008958091C0008F7703C08091C0008F7D00
:100CE0008093C00008958091C200877F8093C200E6
:100CF00008951F93CF93DF93282F30E0F901E75B2E
:100D0000FE4F8491F901E65DFE4FD491F901E55F54
:100D1000FE4FC491CC23C9F0162F81110E943C06CE
:100D2000EC2FF0E0EE0FFF1FEE57FE4FA591B491B0
:100D30008FB7F894111105C09C91ED2FE095E92330
:100D400002C0EC91ED2BEC938FBFDF91CF911F91FF
:100D50000895CF93DF9390E0FC01E65DFE4F249170
:100D6000FC01E55FFE4F8491882361F190E0880FDC
:100D7000991FFC01EC58FE4FC591D491FC01EE5730
:100D8000FE4FA591B491611109C09FB7F894888175
:100D9000209582238883EC912E230BC0623061F46E
:100DA0009FB7F8943881822F809583238883EC91B4
:100DB0002E2B2C939FBF06C08FB7F894E8812E2B63
:100DC00028838FBFDF91CF910895823108F082513F
:100DD000E82FF0E0E859FE4FE49180917B00E3FBBF
:100DE000222720F930E095E0220F331F9A95E1F792
:100DF0008F7D282B20937B00E770E064E0937C00DC
:100E000080917A00806480937A0080917A0086FDD8
:100E1000FCCF809178002091790090E0922B08958A
:100E20008F929F92AF92BF92CF92DF92EF92FF92FA
:100E30006B017C010E9411044B015C01C114D104BF
:100E4000E104F104F1F00E941104DC01CB018819E6
:100E50009909AA09BB09883E9340A105B10570F321
:100E600021E0C21AD108E108F10888EE880E83E07B
:100E7000981EA11CB11CC114D104E104F10419F79E
:100E8000DDCFFF90EF90DF90CF90BF90AF909F901D
:100E90008F9008957F928F929F92AF92BF92CF9240
:100EA000DF92EF92FF920F931F93CF93DF93C82EA1
:100EB0008B017A018091B203811103C08FEF9FEF04
:100EC00075C08091F50180FF05C08091E0008260CF
:100ED0008093E000CE2DDF2DD12C8AEF882E8C2D33
:100EE0008770B82E8C2D8072A82E8C2D8074982E31
:100EF0009AE3792E209709F452C08C2D0E94D805D0
:100F0000282F81110AC08A948820C1F261E070E024
:100F100080E090E00E941007EDCF90E0C817D9075D
:100F20000CF42C2F3FB7F894B092E9008091E800C0
:100F300085FF33C0822F90E0C81BD90BAA2029F06F
:100F40002150A8F01092F100FBCFF801C7FE07C0B6
:100F5000215058F044914093F1003196F9CF21503F
:100F600020F041914093F100FACF080F191FDD20C6
:100F700019F07092E8000AC08091E80085FD08C071
:100F80007092E800DD24D394209739F0D12C05C06D
:100F9000209719F491107092E8003FBFABCFD110A9
:100FA000ACCF5D9884E68093F401C701DF91CF91C7
:100FB0001F910F91FF90EF90DF90CF90BF90AF9077
:100FC0009F908F907F9008952FB7F8946091F102D1
:100FD0007091F2028091F3029091F4022FBF089574
:100FE0001F920F920FB60F9211242F933F938F935E
:100FF0009F93AF93BF938091F1029091F202A091E1
:10100000F302B091F4023091F00223E0230F2D3768
:1010100020F40196A11DB11D05C026E8230F0296FC
:10102000A11DB11D2093F0028093F1029093F20272
:10103000A093F302B093F4028091F5029091F6022E
:10104000A091F702B091F8020196A11DB11D809305
:10105000F5029093F602A093F702B093F802BF91C5
:10106000AF919F918F913F912F910F900FBE0F9055
:101070001F9018958091E80281116BC081E08093E8
:10108000DB028093DC0221EE32E03093DE0220931B
:10109000DD021092E0021092DF0224EC31E0309386
:1010A000D8022093D7021092E3021092E20210922B
:1010B000E5021092E4028093E6028093E70281EC5D
:1010C0008093E1020E94F605FC0121818091DB0200
:1010D00090E0820F911D089724F081E08093E80250
:1010E00038C0A281B381109729F487ED92E09383F1
:1010F00082830EC018968D919C911997009711F0DC
:10110000DC01F8CF87ED92E019969C938E931897A7
:1011100080818093D90281818093DA0290818091CD
:10112000DC02890F808380E09091DB028917A8F6AA
:10113000A091DD02B091DE02A80FB11D9C91A181AA
:10114000B0E0A050BF4F9C9391819F5F91838F5FD0
:10115000EBCF87ED92E008951F920F920FB60F929A
:1011600011242F933F934F935F936F937F938F93AC
:101170009F93AF93BF93EF93FF938091B900887FC4
:10118000803609F49CC068F5883209F45BC090F49D
:10119000803109F454C038F4882309F4F6C088304B
:1011A00009F44DC0F6C0883109F44CC0803209F40E
:1011B0005DC0EFC0803409F468C048F4803309F49E
:1011C00055C0883309F0E5C08093B002D8C080359F
:1011D00009F44FC0883509F45DC0883409F0D9C0DE
:1011E000D6C0883909F4C7C0A8F4883709F467C0A5
:1011F00038F4883609F463C0803709F460C0C9C088
:10120000883809F4B8C0803909F45FC0803809F023
:10121000C0C05BC0803B09F486C038F4803A09F452
:1012200066C0883A09F47FC0B4C0803C09F4A7C006
:10123000883C09F4A4C0883B09F48AC0AAC0809104
:10124000D60210C09091D5028091D402981770F503
:10125000E091D50281E08E0F8093D502F0E0EC544E
:10126000FD4F80818093BB0085EC86C08093B002E7
:101270008EC0E091D50281E08E0F8093D5028091DF
:10128000BB00F0E0EC54FD4F80839091D50280913B
:10129000D4026EC0E091D50281E08E0F8093D5021A
:1012A0008091BB00F0E0EC54FD4F80838091B3024D
:1012B00081116DC081E08093B20284EA61C083E055
:1012C0008093B1021092AF02CFCF8091AF028032F3
:1012D00008F051C0E091AF0281E08E0F8093AF0221
:1012E0008091BB00F0E0E157FD4F8083BDCF85ECDE
:1012F0008093BC001092B1028091AF02803230F432
:10130000E091AF02F0E0E157FD4F10826091AF0233
:1013100070E0E0918D02F0918E028FE892E00995E5
:101320001092AF0236C084E08093B10210928C021A
:1013300010928B02E0918902F0918A0209958091C6
:101340008B02811105C081E080938B0210926902AB
:10135000E0918C0281E08E0F80938C02F0E0E759DF
:10136000FD4F80818093BB0090918C0280918B0215
:10137000981708F479CF85E88093BC000AC085EC03
:101380008093BC001092B10204C01092B0020E947F
:101390008004FF91EF91BF91AF919F918F917F91C9
:1013A0006F915F914F913F912F910F900FBE0F90D2
:1013B0001F901895CF92DF92EF92FF920F931F9399
:1013C000CF93DF93D901E801421753071CF0FA01CC
:1013D000690102C06A01F901882309F43FC09C2D0C
:1013E0008D2DC616D70614F4962F872F292F382F48
:1013F000E217F3070CF49F01A417B50734F4CF01EB
:10140000821B930B9C012C0D3D1D0D2C000CEE0836
:10141000FF08C901330FAA0BBB0B9C01AD012C19AE
:101420003D094E095F09AEEFBFEF0E9415158F0110
:10143000FF0F220B330BA90198012C193D094E090E
:101440005F090E94F614DA01C9018F5F9F47A10965
:10145000B1098883998382E090E002C080E090E047
:10146000DF91CF911F910F91FF90EF90DF90CF9080
:101470000895CF92DF92EF92FF920F931F93CF9335
:10148000DF93D901E801421753071CF0FA01690103
:1014900002C06A01F901882309F43FC09C2D8D2DFB
:1014A000C616D70614F4962F872F292F382FE21748
:1014B000F3070CF49F01A417B50734F4CF01821B86
:1014C000930B9C012C0D3D1D0D2C000CEE08FF080C
:1014D000C901330FAA0BBB0B9C01AD012C193D09AF
:1014E0004E095F09AEEFBFEF0E9415158F01FF0F88
:1014F000220B330BA90198012C193D094E095F09F4
:101500000E94F614DA01C9018F5F9F47A109B10952
:101510008883998382E090E002C080E090E0DF91D0
:10152000CF911F910F91FF90EF90DF90CF90089592
:10153000FC018091B203811103C08FEF9FEF0895EA
:101540009FB7F89482E08093E9002091F20030E0A8
:101550001216130614F421E030E02115310559F07C
:10156000289884E68093B1038091F1008083809174
:10157000F200882319F09FBFC90108958BE680937C
:10158000E800F9CFCF93DF931F92CDB7DEB7698321
:10159000DC01ED91FC910280F381E02D41E050E00F
:1015A000BE016F5F7F4F09950F90DF91CF91089536
:1015B00083E08093E9008091F200882319F08AE3A8
:1015C0008093E8000895CF93DF931F92CDB7DEB7E5
:1015D000FC018485958597FD05C02FEF3FEF35878A
:1015E00024870BC0CE0101960E94980A019719F436
:1015F000898190E002C08FEF9FEF0F90DF91CF9134
:1016000008950F931F93CF93DF931F92CDB7DEB74B
:101610008C01FC018485958597FF0EC0CE01019653
:101620000E94980A019719F4298130E002C02FEF37
:101630003FEFF80135872487F801848595850F9061
:10164000DF91CF911F910F910895FC0184859585BD
:1016500097FD0BC09FB7F89482E08093E9008091DA
:10166000F2009FBF90E0019608959FB7F89482E042
:101670008093E9008091F2009FBF90E00895CF939E
:10168000DF93EC0180912901882331F083E00E94EF
:101690004A071816190634F081E090E09B838A838C
:1016A00080E090E0DF91CF91089583E00E94D8051B
:1016B00090E008957F928F929F92AF92BF92CF92C7
:1016C000DF92EF92FF920F931F93CF93DF93CDB7EB
:1016D000DEB7ADB6BEB6809154032DB73EB7281B1A
:1016E00031090FB6F8943EBF0FBE2DBF8DB79EB720
:1016F00001966C01E0902303F12C80911F039091DF
:101700002003D601FC019F01281B390B2E153F0534
:101710001CF421912D93F7CF80912403882371F13C
:1017200080911B0390911C0397FD0AC068E671E04D
:101730000E9451156DE270E00E945115262F01C0E4
:1017400028E080911D0390911E0397FD0AC068E672
:1017500071E00E9451156DE270E00E945115962FC4
:1017600001C098E0F601EE0DFF1D30E1939FC0012E
:101770001124822B8083C70101967C0186010E0D06
:101780001F1D2091290330912A0340912703509176
:1017900028036091050370910603809125038170F1
:1017A0000E94390AE80EF91E86010E0D1F1D2091B8
:1017B0002D0330912E0340912B0350912C03609107
:1017C00007037091080380912503869581700E941C
:1017D000390AE80EF91E86010E0D1F1D20913103F6
:1017E0003091320340912F035091300360910903EF
:1017F00070910A038091250382FB882780F90E945B
:10180000390AE80EF91E86010E0D1F1D20913503C1
:1018100030913603409133035091340360910B03B0
:1018200070910C038091250383FB882780F90E9427
:10183000390AE80EF91E86010E0D1F1D209139038D
:1018400030913A03409137035091380360910D0372
:1018500070910E0380912503829581700E94390A50
:10186000E80EF91E86010E0D1F1D20913D033091DB
:101870003E0340913B0350913C0360910F037091F4
:1018800010038091250385FB882780F90E94390A7F
:10189000E80EF91E86010E0D1F1D209141033091A7
:1018A000420340913F0350914003609113037091B4
:1018B00014038091260381700E94DA09E80EF91E54
:1018C00086010E0D1F1D2091450330914603409166
:1018D000430350914403609111037091120380916E
:1018E0002603869581700E94DA09E80EF91E8601AA
:1018F0000E0D1F1D2091490330914A03409147036B
:10190000509148036091150370911603809126034E
:1019100082FB882780F90E94DA09E80EF91E860109
:101920000E0D1F1D20914D0330914E0340914B032E
:1019300050914C0360911703709118038091260316
:1019400083FB882780F90E94DA098E0D9F1D86018E
:10195000080F191F209151033091520340914F03FA
:10196000509150036091190370911A0380912603DE
:10197000829581700E94DA0910915403709053038C
:101980000E943A087C01412F50E04A019FEF891ADA
:10199000990AEDB7FEB7E819F9090FB6F894FEBF3A
:1019A0000FBEEDBF0DB71EB70F5F1F4F7182B6019F
:1019B000C80101960E94B116F7018381A401B80104
:1019C00080640E944A070FB6F894BEBE0FBEADBE3B
:1019D000DF91CF911F910F91FF90EF90DF90CF900B
:1019E000BF90AF909F908F907F900895082E000C2D
:1019F000990B2091240330E08217930764F4880F39
:101A0000991FFC01E55EFC4F718360838091210387
:101A100081110C945A0B0895909122038917F8F4C0
:101A2000982F969596959695E0911F03F091200337
:101A3000E90FF11D282F277081E090E0A0E0B0E0D1
:101A400004C0880F991FAA1FBB1F2A95D2F72081B7
:101A5000822B80838091210381110C945A0B08956D
:101A600090912203891700F5982F96959695969553
:101A7000E0911F03F0912003E90FF11D282F27703B
:101A800081E090E0A0E0B0E004C0880F991FAA1F99
:101A9000BB1F2A95D2F780959081892380838091FE
:101AA000210381110C945A0B0895CF93DF93CDB786
:101AB000DEB7A0970FB6F894DEBF0FBECDBF789407
:101AC00084B5826084BD84B5816084BD85B5826043
:101AD00085BD85B5816085BD80916E0081608093F4
:101AE0006E0010928100809181008260809381005D
:101AF000809181008160809381008091800081606D
:101B00008093800080919100826080939100809109
:101B1000910081608093910080919000816080931A
:101B200090008091C10084608093C1008091C100C9
:101B300082608093C1008091C10081608093C10068
:101B40008091C30081608093C3008091C000826057
:101B50008093C0008091C20081608093C200809118
:101B60007A00846080937A0080917A00826080930A
:101B70007A0080917A00816080937A0080917A0067
:101B8000806880937A001092B2031092F70110924D
:101B9000F5018091D70081608093D70080EA80931F
:101BA000D80089B5806189BD89B5826089BD09B4D5
:101BB00000FEFDCF61E070E080E090E00E94100741
:101BC0008091D8008F7C80618093D8008091E00064
:101BD000807F8093E0008091E1008E7E8093E10021
:101BE0008DE08093E200559A209AEEEFFFE7859111
:101BF00094918B3F9C4D19F481E08093F60181E034
:101C0000809321030E945A0B21E030E8309328038F
:101C1000209327038FEF9FE790932A038093290354
:101C200030932C0320932B0390932E0380932D034A
:101C30003093300320932F0390933203809331032A
:101C4000309334032093330390933603809335030A
:101C5000309338032093370390933A0380933903EA
:101C600030933C0320933B0390933E0380933D03CA
:101C700061E084E00E94A90661E08FE00E94A9066D
:101C800060E08EE00E94A9060E94E4076B837C83DB
:101C90008D839E83609364027093650280936602D5
:101CA0009093670261E084E00E94790660E084E03E
:101CB0000E9479060EE111E061E08FE00E94A90622
:101CC00060E08EE00E94A90697E0A92EB12CF12CCD
:101CD00060E08FE00E94790683E090E00197F1F7E1
:101CE000E7E5F1E08491E8E3F1E0E490E9E1F1E097
:101CF000D490DD2079F081110E943C06ED2DF0E0BA
:101D0000EE0FFF1FE350FF4FA591B4918C91E82295
:101D100009F0C8C361E08FE00E947906F1E0AF1AD4
:101D2000B108B0F6D801FD928D01B1E003321B0776
:101D300009F0C2CFF4E98F2EF1E09F2EA8E6CA2E5B
:101D4000A1E0DA2EB4E3EB2EB2E0FB2E412CF4013D
:101D5000619071904F01F301E35EFE4F50805F820E
:101D6000D6015C90B2E0CB0ED11CAF800A2D10E002
:101D7000052C02C0159507950A94E2F79301285E99
:101D80003E4F5901D9018C9190E0052C02C09595E8
:101D900087950A94E2F78027912780FF0AC00E9466
:101DA000E4076093600270936102809362029093F3
:101DB00063020E94E4072091600230916102409129
:101DC000620250916302DC01CB01821B930BA40BD6
:101DD000B50B0697A105B10500F1F301ED5EFE4FCD
:101DE000808190E002C0959587955A94E2F780270C
:101DF000912780FF12C05F805082842D00FD08C0B3
:101E00000E940C0DE1E0F0E0D701ED93FC9305C0DA
:101E10000E94300DD7011D921C925F80F501508207
:101E2000439422E0E20EF11C36E1431290CF64E5C8
:101E3000862E61E0962E70E4C72E71E0D72EE0E288
:101E4000EE2EE2E0FE2ED4016D907D904D01F30167
:101E5000E35EFE4F50805F82D6015C90B2E0CB0E15
:101E6000D11CAF800A2D10E0052C02C015950795F6
:101E70000A94E2F79301285E3E4F5901D9018C91F3
:101E800090E0052C02C0959587950A94E2F780278B
:101E9000912780FF0AC00E94E4076093600270935C
:101EA000610280936202909363020E94E407209192
:101EB0006002309161024091620250916302DC0144
:101EC000CB01821B930BA40BB50B0697A105B105A3
:101ED00078F1F301ED5EFE4F808190E002C09595B0
:101EE00087955A94E2F78027912780FF21C05F8071
:101EF0005082842D00FD0EC00E940C0DE1E0F0E048
:101F0000D701ED93FC936EE170E080E090E00E94D9
:101F100010070BC00E940C0D6EE170E080E090E0B5
:101F20000E941007D7011D921C92842D0E94300D33
:101F30005F80F5015082439422E0E20EF11C30E212
:101F4000431281CF38E3632E31E0732E40E3A42E99
:101F500041E0B42E58E1C52E52E0D52E0AE510E03E
:101F6000D3014D905D903D0158864F82F201E35EB2
:101F7000FE4F5080D5014C90B2E0AB0EB11CE52C69
:101F8000F12C042C02C0F594E7940A94E2F72F8117
:101F90003885285E3E4F4901D9018C9190E0042C90
:101FA00002C0959587950A94E2F78E259F2580FFBC
:101FB0000AC00E94E40760936002709361028093FC
:101FC0006202909363020E94E407209160023091C4
:101FD00061024091620250916302DC01CB01821BDD
:101FE000930BA40BB50B0697A105B10520F1EF816A
:101FF000F885ED5EFE4F808190E002C09595879553
:102000004A94E2F78E259F2580FF15C05082E0FCA0
:1020100008C0B80180E00E94F60CF601118300832D
:102020000AC06FEF7FEF80E00E94F60C8FEF9FEF0A
:10203000D6018D939C93F4015082F2E0CF0ED11C17
:10204000065A1F4F023C21E0120709F089CF9091F8
:102050002201892F8170082F10E010931502009340
:1020600014029695917099831A8249805A805092F1
:1020700011024092100281111BC080910C029091BC
:102080000D02892BA9F0452819F464EB70E002C019
:1020900060E070E081E00E94F60C64E070E080E0B7
:1020A00090E00E9410076FEF7FEF81E00E94F60C36
:1020B00010930D0200930C0280911F0190E086FBAB
:1020C000222420F8312C3092170220921602880F19
:1020D000892F881F990B9093130280931202211469
:1020E0003104D9F420910E0230910F02232BA9F074
:1020F000892B19F46EE071E002C06AE570E081E0BE
:102100000E94F60C64E070E080E090E00E9410070E
:102110006FEF7FEF81E00E94F60C30920F02209269
:102120000E0282E10E94E5068C0185E10E94E5062F
:1021300098A38F8F84E10E94E5069C8F8B8F83E1AB
:102140000E94E5069E8F8D8F6090110170901201A4
:1021500078866F82A0900202B0900302BA86A986A8
:102160002501BB0C66087708C0900F01D0901001C4
:10217000DC86CB86A0900002B0900102BE86AD86C0
:102180004501BB0CAA08BB08C0900D01D0900E0100
:10219000D88ACF86C090FE01D090FF01DA8AC98A22
:1021A0000D2C000CEE08FF0820910B0130910C0162
:1021B0003C8B2B8B4091FC015091FD015E8B4D8B34
:1021C000CA01092E000CAA0BBB0B8F8B988FA98F0D
:1021D000BA8FC801110FAA0BBB0B9C01AD012419CA
:1021E000350946095709A1E0B1E00E941515AF81F4
:1021F000B8858D01BB0F220B330BA901980124195F
:102200003509460957090E94F614890122303140E8
:1022100014F001E011E017FF02C000E010E010939D
:102220000B0200930A024F8C58A0C201550CAA0B56
:10223000BB0B9C01AD01281939094A095B09A1E0D2
:10224000B1E00E9415152B853C852901330F6608E6
:102250007708A3019201281939094A095B090E94EC
:10226000F61438A32F8F2230314024F081E091E022
:1022700098A38F8F4F8C58A057FE02C018A21F8EB4
:102280006F8C78A07092090260920802AB8CBC8CB3
:10229000C501BB0CAA0BBB0B9C01AD012C193D0960
:1022A0004E095F09A1E0B1E00E9415154F845888DE
:1022B0004201550CAA08BB08A50194012C193D093F
:1022C0004E095F090E94F614790122E0E21621E02E
:1022D000F2061CF0EE24E394FE2CF7FE02C0E12C83
:1022E000F12CF0920702E09206024D8C5E8CC20146
:1022F000550CAA0BBB0B9C01AD01AF88B88CC98CE7
:10230000DA8C2A193B094C095D09A1E0B1E00E9471
:102310001515CB88DC884601DD0CAA08BB08A50191
:1023200094014F88588C698C7A8C24193509460998
:1023300057090E94F614690122E0C21621E0D20674
:102340001CF0CC24C394DC2CD7FE02C0C12CD12CB1
:10235000D0920502C0920402109306030093050375
:102360008091210381110E945A0B4F8C58A05092EA
:102370000803409207038091210381110E945A0BA8
:10238000F0920A03E09209038091210381110E94D7
:102390005A0BD0920C03C0920B0380912103811140
:1023A0000E945A0B82E10E94E50690930B028093F3
:1023B0000A026F8078846816790624F490931201DB
:1023C00080931101A984BA848A159B0524F4909303
:1023D00003028093020285E10E94E50690930902C0
:1023E00080930802CB84DC84C816D90624F4909329
:1023F000100180930F014D845E848415950524F4AB
:10240000909301028093000284E10E94E50690937C
:102410000702809306026F8478886816790624F490
:1024200090930E0180930D01A988BA888A159B05A7
:1024300024F49093FF018093FE0183E10E94E5065E
:102440009093050280930402CB88DC88C816D906D5
:1024500024F490930C0180930B014D885E888415C1
:10246000950524F49093FD018093FC010E94E407FC
:10247000DC01CB01AB80BC80CD80DE808A199B095A
:10248000AC09BD098093F8019093F901A093FA017A
:10249000B093FB0180E090E0892B09F4F5CB0E941A
:1024A0000000F2CB81E090E00A2C01C0880F0A9472
:1024B000EAF7F82A2FCCCF92DF92EF92FF920F9398
:1024C0001F93CF93DF93CDB7DEB7C659D1090FB6AF
:1024D000F894DEBF0FBECDBF109258031092570381
:1024E00088EE93E0A0E0B0E08093590390935A0304
:1024F000A0935B03B0935C0320ED31E0309356036F
:10250000209355032FEF3FEF309362032093610335
:102510001092A8031092A7038093A9039093AA0393
:10252000A093AB03B093AC0382EE91E09093A6032B
:102530008093A5031092200310921F03109223038F
:1025400010922803109227038FEF93E090932A03B1
:102550008093290310922C0310922B0390932E0347
:1025600080932D031092300310922F039093320327
:102570008093310310923403109233039093360307
:1025800080933503109238031092370390933A03E7
:102590008093390310923C0310923B0390933E03C7
:1025A00080933D031092400310923F0390934203A7
:1025B0008093410310924403109243039093460387
:1025C00080934503109248031092470390934A0367
:1025D0008093490310924C0310924B0390934E0347
:1025E00080934D031092500310924F039093520327
:1025F0008093510353E05093530330E2309322030E
:1026000022E0209324038FE3809325038FE18093BE
:10261000260345E0498391E09A8389E08B83F4E0C7
:10262000FC83E1EAED839E8365E86F8358874987E1
:102630008A8759E15B879C8759E25D873E8715E170
:102640001F87188AB5E2B98B9A8B65E76B8B9C8BD9
:1026500055E95D8B3E8B35E53F8B188EA5E6A98F3E
:102660001A8E31E83B8F2C8F4D8F9E8F8F8F79E3A1
:10267000C72EC8A219A31AA2BBA307E0D02EDCA2C2
:1026800075E37DA31EA206E4E02EEFA20BE3F02E7D
:10269000F8A699A7AAA704E10BA76CA7FDA75EA7B8
:1026A0009FA738AB29AB8AABCBAA1CAB1DAABEAB8C
:1026B000DFAA78AF19AEEAAEFBAE9CAFADAF0EAFFE
:1026C0006FAF2196FFAF219722965FAF2297239697
:1026D0009FAF239724963FAF249725962FAF25973A
:1026E00026968FAF269727969FAF2797F6E1FF2E66
:1026F0002896FFAE289729969FAF299700E82A963B
:102700000FAF2A9716E22B961FAF2B97BFEF2C9691
:10271000BFAF2C97AFE72D96AFAF2D972E966FAF2B
:102720002E97F0E12F96FFAF2F9760965FAF6097DF
:102730000F2EF6E0EF2EF02D6196EFAE61976296C8
:10274000EFAF629763961FAE639764968FAF6497FF
:102750000F2EF0E3EF2EF02D6596EFAE659766969F
:102760008FAF66970F2EF1E3EF2EF02D6796EFAE49
:10277000679768968FAF68970F2EF2E3EF2EF02DD4
:102780006996EFAE69976A968FAF6A970F2EF3E35B
:10279000EF2EF02D6B96EFAE6B976C968FAF6C971C
:1027A0000F2EF4E3EF2EF02D6D96EFAE6D976E9633
:1027B0008FAF6E976F967FAF6F97A0963FAFA09742
:1027C000A1962FAFA19770ECA2967FAFA297A39688
:1027D0004FAFA397A4962FAFA497A596FFAEA5974A
:1027E000A6969FAFA697A7960FAFA797A8961FAFDD
:1027F000A897A996BFAFA997AA96AFAFAA97AB968D
:102800006FAFAB97AC96FFAFAC97AD965FAFAD97A0
:10281000AE964FAFAE97AF96EFAFAF97E0961FAEC5
:10282000E097E1968FAFE1979AEBE2969FAFE29740
:10283000E3968FAFE3979BEBE4969FAFE497E59623
:102840008FAFE59794ECE6969FAFE697E7968FAF4C
:10285000E79795ECE8969FAFE897E9968FAFE997F1
:1028600088ECEA968FAFEA97EB963FAFEB97EC9642
:102870002FAFEC97ED967FAFED97EE967FAFEE978B
:102880008DE790E00E947F157C018DE7FE01319677
:10289000D70101900D928A95E1F787E090E00E94C0
:1028A0007F158C01DC0111961C921E921396FC92EE
:1028B000EE9212978DE790E015969C938E93149765
:1028C00016961C920E943A08FC01A385B4851097C5
:1028D00019F41487038709C08D919C911197009773
:1028E00011F0DC01F9CF0D931C9325853685D801B5
:1028F00014968D919C911597820F931F96878587CB
:1029000090912203892F869586958695977009F078
:102910008F5F8093230310912303812F90E00E9407
:102920007F159093200380931F031A5E81E090919E
:102930002403911101C080E0810F80935403109211
:1029400006031092050310920803109207031092D9
:102950000A031092090310920C0310920B031092B9
:102960000E0310920D031092100310920F03109299
:102970001203109211031092140310921303109279
:102980001603109215031092180310921703109259
:102990001A03109219038FEF9FEF90931C038093FB
:1029A0001B0390931E0380931D0380E090E0209111
:1029B000230330E0821793074CF4E0911F03F0915A
:1029C0002003E80FF91F10820196F1CFCA56DF4F9E
:1029D0000FB6F894DEBF0FBECDBFDF91CF911F9130
:1029E0000F91FF90EF90DF90CF900895052E97FB09
:1029F0001EF400940E940D1557FD07D00E9420156B
:102A000007FC03D04EF40C940D155095409530956D
:102A100021953F4F4F4F5F4F08959095809570954A
:102A200061957F4F8F4F9F4F08950E944215A59F3C
:102A3000900DB49F900DA49F800D911D11240895B9
:102A4000A1E21A2EAA1BBB1BFD010DC0AA1FBB1FB2
:102A5000EE1FFF1FA217B307E407F50720F0A21B24
:102A6000B30BE40BF50B661F771F881F991F1A9491
:102A700069F760957095809590959B01AC01BD01BB
:102A8000CF010895A29FB001B39FC001A39F700D15
:102A9000811D1124911DB29F700D811D1124911D66
:102AA000089597FB072E16F4009407D077FD09D000
:102AB0000E946B1507FC05D03EF4909581959F4FC1
:102AC0000895709561957F4F0895EE0FFF1F059053
:102AD000F491E02D0994AA1BBB1B51E107C0AA1F6A
:102AE000BB1FA617B70710F0A61BB70B881F991FAF
:102AF0005A95A9F780959095BC01CD010895CF9383
:102B0000DF938230910510F482E090E0E091B5030C
:102B1000F091B60320E030E0C0E0D0E0309711F152
:102B20004081518148175907C0F04817590761F48F
:102B300082819381209719F09B838A832BC0909385
:102B4000B6038093B50326C02115310519F042174D
:102B5000530718F49A01BE01DF01EF010280F381EF
:102B6000E02DDCCF2115310509F1281B390B24306C
:102B7000310590F412968D919C9113976115710512
:102B800021F0FB019383828304C09093B60380936A
:102B9000B503FD01329644C0FD01E20FF31F81939E
:102BA0009193225031092D933C933AC02091B30365
:102BB0003091B403232B41F420912C0130912D014D
:102BC0003093B4032093B30320912A0130912B0159
:102BD0002115310541F42DB73EB740912E0150919A
:102BE0002F01241B350BE091B303F091B403E217DE
:102BF000F307A0F42E1B3F0B2817390778F0AC0120
:102C00004E5F5F4F2417350748F04E0F5F1F5093FC
:102C1000B4034093B3038193919302C0E0E0F0E0EA
:102C2000CF01DF91CF9108950F931F93CF93DF933F
:102C3000009709F48CC0FC01329713821282009134
:102C4000B5031091B6030115110581F4208131817E
:102C5000820F931F2091B3033091B40328173907D3
:102C600079F5F093B403E093B30371C0D80140E069
:102C700050E0AE17BF0750F412962D913C91139778
:102C8000AD012115310509F1D901F3CF9D01DA011B
:102C90003383228360817181860F971F8217930788
:102CA00069F4EC0128813981260F371F2E5F3F4FD1
:102CB000318320838A819B8193838283452B29F4EE
:102CC000F093B603E093B50342C01396FC93EE93E2
:102CD0001297ED01499159919E01240F351FE2177A
:102CE000F30771F480819181840F951F02961196EC
:102CF0009C938E938281938113969C938E931297CB
:102D0000E0E0F0E0D80112968D919C911397009726
:102D100019F0F8018C01F6CF8D919C9198012E5FEE
:102D20003F4F820F931F2091B3033091B4032817B4
:102D3000390769F4309729F41092B6031092B5035D
:102D400002C0138212821093B4030093B303DF9185
:102D5000CF911F910F91089581E090E0F8940C9429
:102D6000BA16FB01DC0102C001900D9241505040A7
:082D7000D8F70895F894FFCF95
:102D780000C18081000000FFFFFFFF01000100018A
:102D880000010048494A4B4C48494A4B4C48494A7B
:102D98004B4C00E10000000000000000B703800079
:102DA8000500060004000200030003000200020000
:102DB80005000400020001000300020001000000F9
:102DC80003000700010001000100010003000300E7
:102DD80003000300040004000300010000000700D2
:102DE80002000100000007000300040006000500BF
:102DF80004000600050004000500020006000300A8
:102E080000000700020002000200030004000400A2
:102E18000400050005000300040004000400050088
:102E28000500050002000500010001000100010085
:102E380000000000360490054D055D040000000008
:102E4800C20A3F0B550BD80A250BE30A010B0000F9
:102E58000000D404C004E604B204B904B604B30400
:00000001FF
